:100000000C9434000C9451000C9451000C94510049
:100010000C9451000C9451000C9451000C9451001C
:100020000C9451000C9451000C9451000C9451000C
:100030000C9451000C9451000C9451000C945100FC
:100040000C9451000C9451000C9451000C945100EC
:100050000C9451000C9451000C9451000C945100DC
:100060000C9451000C94510011241FBECFEFD8E026
:10007000DEBFCDBF14E0A0E0B1E0EEE5F5E002C0E8
:1000800005900D92A639B107D9F724E0A6E9B4E0AE
:1000900001C01D92A33AB207E1F70E94D4000C946C
:1000A000AD020C940000811107C080919A0491E088
:1000B000892780939A040895813051F48091020138
:1000C000843121F48AE080930201089584E1FBCF1A
:1000D000823049F48091990491E0892780939904B2
:1000E000909303010895833069F4809103018F5F39
:1000F0008093030108958091980491E0892780936B
:10010000980408958430B9F30895CF938091010144
:10011000880F80930101C0910001CC0FC0930001B2
:10012000199B03C0816080930101809101018F7050
:10013000833051F480919804811106C08091990414
:10014000811124C00E9453001A9B22C0C160C09339
:100150000001809100018F708330B1F4C091980448
:100160008091960490919704C397E0F0C130D1F448
:1001700082E00E94530080919804C827C09398049D
:100180001092970410929604CF91089583E0DACFED
:100190008091960490919704019690939704809390
:1001A0009604D7CF81E0E9CF0E9440010E94590117
:1001B00084E091E00E949D0286E0E82EF12C0DE1A2
:1001C00011E0C1E0F80180810E5F1F4F0E946401C1
:1001D0008C2F8770D9F40E946F01FFE722E382E041
:1001E000F15020408040E1F700C00000CF5FC933EC
:1001F00049F721E0E21AF10811F70E9485008FE12A
:100200009EE40197F1F700C00000D2CFC83011F092
:10021000C83361F79FE7E8E3F1E09150E040F04038
:10022000E1F7E2CF84B1886284B981E58CBD08959D
:100230008EBD0DB407FEFDCF089580E184B984B171
:10024000877D84B980E48CBD08950DB407FEFDCF91
:100250008EB508952A988EBD0DB407FEFDCF6EBDF4
:100260000DB407FEFDCF2A9A0895CF93C0E0CF5F6B
:1002700060E08C2F0E942A01C830C9F7CF91089501
:100280000E941201229A60E08FE00E942A0160E041
:1002900089E00E942A0167E08BE00E942A0165E064
:1002A0008AE00E942A0161E08CE00E942A010C94FD
:1002B0003501EBE9F4E0108211821282138214827C
:1002C0001582168217820895EBE9F4E091819193EB
:1002D00094E0E23AF907D1F78093A20408950F93CE
:1002E0001F93CF930BE914E0C1E0F80161918F01F6
:1002F0008C2F0E942A01CF5FC930B9F7CF911F918F
:100300000F9108956150E62FF0E028E0281BE55694
:10031000FB4F81E090E0022E01C0880F0A94EAF7BB
:1003200080959081892301C0440F2A95EAF7842B98
:10033000808308952F923F925F926F927F928F9267
:100340009F92AF92BF92CF92DF92EF92FF920F9364
:100350001F93CF93DF93CDB7DEB728970FB6F894EE
:10036000DEBF0FBECDBFFE0131961C0128E0220E7C
:10037000311C9F01AC01DA016D91AD01D9016D9382
:100380009D0142155305B9F77F0107E010E088246D
:100390008394912CD701AD907D01B12C3401002EB6
:1003A00001C0660C0A94EAF7562C6094DC0167E001
:1003B00070E07C906501062E02C0D594C7940A9423
:1003C000E2F7C0FE6BC075287C92615071091196EE
:1003D0006F3F760771F701501109E0F6BC016C5FC1
:1003E0007F4F9C01D9011D919D01D1010E911D01ED
:1003F0007901B1E0EB1AF108D7010C93D1011C93FC
:100400006217730779F79F018C01D8016D918D01F7
:10041000D9016D939D0140175107B9F767E070E06E
:10042000EE24E394F12C019110E09701062E01C017
:10043000220F0A94EAF7B22E322F3095DC0147E002
:1004400050E02C916801042E02C0D594C7940A9400
:10045000E2F7C0FE25C02B292C934150510911967B
:100460004F3F540771F761507109E8F628960FB6AF
:10047000F894DEBF0FBECDBFDF91CF911F910F91DA
:10048000FF90EF90DF90CF90BF90AF909F908F90B4
:100490007F906F905F903F902F900895762094CF3B
:1004A0002323DACFEF92FF920F931F93CF93DF9323
:1004B000CDB7DEB728970FB6F894DEBF0FBECDBF1D
:1004C0008E010F5F1F4F28E0829FA0011124D801E9
:1004D00030E020E0F901E40FF51FE357FE4F908173
:1004E0009D932F5F3F4F28303105A1F7C8010E942F
:1004F0009A01780188E0E80EF11CF80181918F01E2
:100500000E9464010E946F01FFEF2AE683E0F15030
:1005100020408040E1F700C00000E016F10669F7D6
:1005200028960FB6F894DEBF0FBECDBFDF91CF91F6
:100530001F910F91FF90EF900895CF93DF93EC01FF
:100540008991811103C0DF91CF91089580520E945B
:0E055000520280E00E946401F3CFF894FFCFC6
:10055E00FFFF14014675636B20796F75001E00F165
:10056E0000F50013001300F500F1001E0038007CAA
:10057E00007E003F003F007E007C00380000003807
:10058E00003C001E001E003C003800000000000071
:10059E000018000C000C0018000000000000000005
:1005AE00000000000000000000000000000000003D
:1005BE000018000C000C00180000000000000038AD
:1005CE00003C001E001E003C003800000038007C7D
:1005DE00007E003F003F007E007C003800000000DF
:1005EE0000000000000000005F5F00000000070731
:1005FE000000070700247E7E247E7E240000242E29
:10060E006B6B3A1200006636180C666200307A4F39
:10061E005D37725000000000070700000000000068
:10062E003E7F6341000041637F3E000000082A3E8A
:10063E001C1C3E2A080008083E3E0808000080E008
:10064E00600000000000080808080808000000000C
:10065E006060000000006030180C060300003E7F52
:10066E0049457F3E000040427F7F4040000042638C
:10067E0071594F4600002161454F7B310000181C17
:10068E00167F7F100000276745457D3900003E7FAD
:10069E004949793000000171790D07030000367F5A
:1006AE0049497F360000064F49693F1E0000000091
:1006BE0036360000000000407636000000000008CC
:1006CE001C366341000024242424242400004163AA
:1006DE00361C08000000020351590F0600003E7F31
:1006EE00415D575E00007C7E13137E7C00007F7F91
:1006FE0049497F3600003E7F4141632200007F7FE3
:10070E0041633E1C00007F7F4949494100007F7FC5
:10071E000909090100003E7F4149797900007F7F78
:10072E0008087F7F000000417F7F410000002060AD
:10073E0040407F3F00007F7F1C36634100007F7F7B
:10074E0040404040007F7F060C067F7F00007F7F89
:10075E000E1C7F7F00003E7F41417F3E00007F7F69
:10076E0009090F0600003E7F51217F5E00007F7F4A
:10077E0009197F660000266F49497B32000001018E
:10078E007F7F010100003F7F40407F7F00001F3FC1
:10079E0060603F1F007F7F3018307F7F00006377DF
:1007AE001C1C77630000070F78780F07000061713B
:1007BE00594D4743000000007F7F41410000030672
:1007CE000C183060000041417F7F000000080C06CD
:1007DE0003060C0800404040404040400002060C1A
:1007EE00080000000000207454547C7800007F7FC5
:1007FE0044447C380000387C444444000000387C7B
:10080E0044447F7F0000387C54545C180000047E02
:10081E007F050500000098BCA4A4FC7C00007F7F2F
:10082E0004047C78000000447D7D40000000808040
:10083E00FD7D000000007F7F10386C4400000041F9
:10084E007F7F4000007C7C0C180C7C7800007C7C48
:10085E0004047C780000387C44447C380000FCFCA6
:10086E0044447C380000387C4444FCFC00007C7C12
:10087E0004040C080000485C545474240000040462
:10088E003E7E444400003C7C40407C7C00001C3C8E
:10089E0060603C1C001C7C6030607C1C0000446C62
:1008AE0038386C4400009CBCA0A0FC7C0000446462
:1008BE00745C4C44000000083E774141000000008B
:1008CE00FFFF000000004141773E0800000C0606C5
:1008DE000C18180C000060785E465860000000008E
:0608EE0000000000000004
:00000001FF
